:020000040000FA
:060000000A128A110C280F
:10000800FE00030EF0000A08F1000A128A11022904
:100018000A128A110F28F801F90183010A128A11BC
:1000280015280A128A11D0200A128A118030F2008B
:100038002530F3000A128A1182200A128A118312CB
:10004800031307110330F7009730F600F60B2A2840
:10005800F70B2A282F2801300A128A112F210A1299
:100068008A110A128A111F210A128A11F6007608CB
:10007800F9001A30F700F830F600F60B4128F70BB4
:100088004128000000300A128A112F210A128A1111
:100098000A128A111F210A128A11F6007608F8003E
:1000A8001A30F700F830F600F60B5828F70B5828E6
:1000B800000083120313071579080A128A11132105
:1000C8000A128A110330F7009730F600F60B6A28F7
:1000D800F70B6A286F2878080A128A1113210A1266
:1000E8008A110330F7009730F600F60B7928F70BE2
:1000F80079287E2823280A128A110C2883160313CC
:100108001813981618121815831203139817181332
:1001180018168316031787118B170B1783160313EB
:100128008C16A528CF309900CF2867309900CF28A2
:1001380019309900CF2817309900CF280C30990032
:10014800CF287308043A0319B6280D3A0319BB28B7
:100158002C3A0319C0280D3A0319C528633A031924
:10016800CA289C287208B03A031996289C28720855
:10017800603A031999289C287208803A03199C2828
:100188009C287208B13A03199F289C287208003AE3
:100198000319A2289C2808008316031788018901DF
:1001A800831603130711850186018801831203133F
:1001B8008501860188010715F201F301F401203059
:1001C8000A128A11EC200A128A118B170B170800E1
:1001D800F500831603138712751DF328F428F828F1
:1001E800740894008715FC28720874049400871119
:1001F8007508730483120313940008008B13831289
:1002080003138C1E082909290B291A0886008B1745
:1002180071088A00700E8300FE0E7E0E0900F2003F
:1002280083160313981C19291A2914297208831292
:100238000313990008000A128A1128210A128A1148
:10024800831203131308080083160313141C2D29A3
:100258002E2928290800F20072088312031393003C
:0202680008008C
:04400E00D4E0FFFFFC
:00000001FF
