:020000040000FA
:060000000A128A11FA2F1A
:100EDC00F0007008831203139300080083160313A9
:100EEC00141C792F7A2F742F08000A128A11742778
:100EFC000A128A118312031313080800F3008316D5
:100F0C0003138712731D8B2F8C2F902F7208940054
:100F1C008715942F7008720494008711730871045C
:100F2C0083120313940008008316031788018901A8
:100F3C00831603130711850186018801831203139D
:100F4C008501860188010715F001F101F2012030BD
:100F5C000A128A1184270A128A1108000A128A11AD
:100F6C009A270A128A118312031307110330F50012
:100F7C009730F400F40BC02FF50BC02FC52F0130A8
:100F8C000A128A116E270A128A110A128A117B27F9
:100F9C000A128A11F4007408F7001A30F500F830C0
:100FAC00F400F40BD72FF50BD72F000000300A12EA
:100FBC008A116E270A128A110A128A117B270A12C9
:100FCC008A11F4007408F6000330F5009730F40031
:100FDC00F40BEE2FF50BEE2FF32F831203130715E3
:100FEC00B92F0A128A110028F601F70183010A129F
:040FFC008A11B42F73
:04400E00D4E0FFFFFC
:00000001FF
