:020000040000FA
:060000000A128A110C280F
:10000800FE00030EF0000A08F1000A128A11F02817
:100018000A128A110F28F801F90183010A128A11BC
:1000280015280A128A11BE200A128A118030F2009D
:100038002530F3000A128A1170200A128A118312DD
:10004800031307110330F7009730F600F60B2A2840
:10005800F70B2A282F2801300A128A111D210A12AB
:100068008A110A128A110D210A128A11F6007608DD
:10007800F9001A30F700F830F600F60B4128F70BB4
:100088004128000000300A128A111D210A128A1123
:100098000A128A110D210A128A11F6007608F80050
:1000A8001A30F700F830F600F60B5828F70B5828E6
:1000B800000083120313071579080A128A11012117
:1000C8000A128A1178080A128A1101210A128A1161
:1000D80023280A128A110C2883160313181398165A
:1000E8001812181583120313981718131816831665
:1000F800031787118B170B17831603138C16932876
:10010800CF309900BD2867309900BD281930990073
:10011800BD2817309900BD280C309900BD287308F8
:10012800043A0319A4280D3A0319A9282C3A0319EB
:10013800AE280D3A0319B328633A0319B8288A2858
:100148007208B03A031984288A287208603A031999
:1001580087288A287208803A03198A288A28720808
:10016800B13A03198D288A287208003A0319902891
:100178008A28080083160317880189018316031348
:100188000711850186018801831203138501860101
:1001980088010715F201F301F40120300A128A11CF
:1001A800DA200A128A118B170B170800F50083163C
:1001B80003138712751DE128E228E62874089400C5
:1001C8008715EA2872087404940087117508730467
:1001D80083120313940008008B13831203138C1EDD
:1001E800F628F728F9281A0886008B1771088A005C
:1001F800700E8300FE0E7E0E0900F20083160313B4
:10020800981C0729082902297208831203139900E8
:1002180008000A128A1116210A128A11831203137E
:100228001308080083160313141C1B291C291629FC
:0E0238000800F20072088312031393000800FE
:04400E00D4E0FFFFFC
:00000001FF
