:020000040000FA
:060000000A128A110E280D
:10000800FE00030EF4000408F5000A08F6000A12C0
:100018008A1178290A128A111128F7018312031309
:10002800A601A70183010A128A113229F2007E284B
:10003800831203139F121F129F111F11B2288312DC
:1000480003139F121F129F111F15B2288312031347
:100058009F121F129F151F11B228831203139F129C
:100068001F129F151F15B228831203139F121F1604
:100078009F111F11B228831203139F121F169F117D
:100088001F15B228831203139F121F169F151F11E5
:10009800B228831203139F121F169F151F15B2282B
:1000A800831203139F161F129F111F11B228831268
:1000B80003139F161F129F111F15B22883120313D3
:1000C8009F161F129F151F11B228831203139F1624
:1000D8001F129F151F15B228831203139F161F1690
:1000E8009F111F11B228831203139F161F169F1109
:1000F8001F15B2287208F000F1017108003A0319BF
:100108008628B2287008003A03191C28013A0319F6
:100118002328033A03192A28013A03193128073AF0
:1001280003193828013A03193F28033A03194628C6
:10013800013A03194D280F3A03195428013A0319B3
:100148005B28033A03196228013A03196928073A18
:1001580003197028013A03197728B2280800831276
:100168000313A200FD289F121F129F111F1131298E
:100178009F121F129F111F1531299F121F129F15C1
:100188001F1131299F121F129F151F1531299F1208
:100198001F169F111F1131299F121F169F111F151E
:1001A80031299F121F169F151F1131299F121F16E3
:1001B8009F151F1531299F161F129F111F113129D5
:1001C8009F161F129F111F1531299F161F129F1569
:1001D8001F1131299F161F129F151F1531299F16B0
:1001E8001F169F111F1131299F161F169F111F15CA
:1001F80031292208A000A1012108003A0319052984
:1002080031292008003A0319B728013A0319BC28F4
:10021800033A0319C128013A0319C628073A0319F2
:10022800CB28013A0319D028033A0319D528013AF3
:100238000319DA280F3A0319DF28013A0319E428C9
:10024800033A0319E928013A0319EE28073A031972
:10025800F328013A0319F828312908000A128A11EB
:10026800B3210A128A110A128A11F9210A128A1173
:1002780000300A128A11B3200A128A11831203135A
:100288009F141A3083120313A500F730A400A40B9F
:100298004B29A50B4B2950290A128A1108220A1248
:1002A8008A11013A031D59295A2962298312031315
:1002B80027080A128A1118220A128A110A128A11A8
:1002C80008220A128A11003A031D6B296C29422957
:1002D8008312031326080A128A1118220A128A1195
:1002E80042290A128A110E288B13831203130C1F3A
:1002F8007E297F2993297708031D83298429932937
:100308000C13F701F70A1E08F3007308A7009E01F3
:1003180001300A128A111A200A128A11A9290C1FFF
:1003280096299729A9297703031D9B299C29A9297F
:100338000C13F7011E08F3007308A6009E01003095
:100348000A128A111A200A128A118B1776088A0053
:1003580075088400740E8300FE0E7E0E0900831655
:1003680003178801890108148814033083160313BE
:1003780085008601880183120313860188018B1783
:100388000B17831603130C17831203130C1383160E
:1003980003138C11851683120313A001A101A20176
:1003A80024300A128A11DB210A128A1108008312EA
:1003B8000313A30083160313871283120313231D49
:1003C800E629E729ED2922088316031394008715E7
:1003D800F32920082204831603139400871183123B
:1003E80003132308210494000800831203131F1425
:1003F800831603139F139F121F120C1783120313E4
:100408000C139F131F1708000A128A1111220A12CF
:100418008A11831203131308080083160313141C8C
:10042800162A172A112A080083120313A00020088D
:040438009300080025
:04400E00D4E0FFFFFC
:00000001FF
