:020000040000FA
:060000000A128A110E280D
:10000800FE00030EF4000408F5000A08F6000A12C0
:100018008A1130290A128A111128F701F801F90109
:1000280083010A128A11B529F2007C28831203136E
:100038009F121F129F111F11B028831203139F12C2
:100048001F129F111F15B028831203139F121F122E
:100058009F151F11B028831203139F121F129F159B
:100068001F15B028831203139F121F169F111F110B
:10007800B028831203139F121F169F111F15B02853
:10008800831203139F121F169F151F11B028831286
:1000980003139F121F169F151F15B02883120313F1
:1000A8009F161F129F111F11B028831203139F164A
:1000B8001F129F111F15B028831203139F161F12BA
:1000C8009F151F11B028831203139F161F129F1527
:1000D8001F15B028831203139F161F169F111F1197
:1000E800B028831203139F161F169F111F15B028DF
:1000F8007208F000F1017108003A03198428B02849
:100108007008003A03191A28013A03192128033AFA
:1001180003192828013A03192F28073A0319362802
:10012800013A03193D28033A03194428013A0319EF
:100138004B280F3A03195228013A03195928033A50
:1001480003196028013A03196728073A03196E282A
:10015800013A03197528B028080083120313A20076
:10016800FB289F121F129F111F112F299F121F1268
:100178009F111F152F299F121F129F151F112F291D
:100188009F121F129F151F152F299F121F169F11AF
:100198001F112F299F121F169F111F152F299F12FC
:1001A8001F169F151F112F299F121F169F151F1508
:1001B8002F299F161F129F111F112F299F161F12DB
:1001C8009F111F152F299F161F129F151F112F29C9
:1001D8009F161F129F151F152F299F161F169F1157
:1001E8001F112F299F161F169F111F152F2922082F
:1001F800A000A1012108003A031903292F2920088A
:10020800003A0319B528013A0319BA28033A031921
:10021800BF28013A0319C428073A0319C928013A23
:100228000319CE28033A0319D328013A0319D82809
:100238000F3A0319DD28013A0319E228033A031992
:10024800E728013A0319EC28073A0319F128013A7B
:100258000319F6282F2908008B13831203130C1F88
:10026800362937294B297908031D3B293C294B2975
:100278000C13F901F90A1E08F3007308F8009E012F
:1002880001300A128A1118200A128A1161290C1FDA
:100298004E294F2961297903031D532954296129BE
:1002A8000C13F9011E08F3007308F7009E010030D3
:1002B8000A128A1118200A128A11831203138C1D3C
:1002C8006629672973297908031D6B296C29732905
:1002D80078080A128A1104220A128A1182298C1DAE
:1002E8007629772982297903031D7B297C2982298C
:1002F80077080A128A1104220A128A118B177608C3
:100308008A0075088400740E8300FE0E7E0E0900B4
:10031800831603178801890108148814033083168B
:10032800031385008601880183120313860188015F
:100338008B170B17831603130C17831203130C1355
:100348008C11831603138C15851683120313A001D1
:10035800A101A20124300A128A11D7210A128A1196
:1003680008000A128A118C210A128A110A128A11AB
:10037800F5210A128A1100300A128A11B1200A12D4
:100388008A11831203139F141A3083120313A500D2
:10039800F730A400A40BCE29A50BCE29D329C52953
:1003A8000A128A110E2883120313A300831603135B
:1003B800871283120313231DE229E329E92922085E
:1003C8008316031394008715EF2920082204831647
:1003D8000313940087118312031323082104940044
:1003E8000800831203131F14831603139F139F120D
:1003F8001F120C17831203130C139F131F170800E7
:0C040800F000700883120313930008003A
:04400E00D4E0FFFFFC
:00000001FF
