:020000040000FA
:060000000A128A11FC2F18
:100F88000A128A11E2270A128A110A128A11002803
:100F9800F300831603138712731DD32FD42FD82F72
:100FA800720894008715DC2F70087204940087116A
:100FB800730871048312031394000800831603173F
:100FC80088018901831603130711850186018801A9
:100FD800831203138501860188010715F001F101C9
:100FE800F20120300A128A11CC270A128A1108004D
:080FF80083010A128A11C42FC3
:04400E00D4E0FFFFFC
:00000001FF
